:020000040800F2
:10000000F06000208D300008E1030008E3030008E1
:10001000E5030008E7030008E9030008000000000A
:10002000000000000000000000000000290200089D
:10003000EB030008000000006D020008792F0008A3
:10004000A7300008A7300008A7300008A730000834
:10005000A7300008A7300008A7300008A730000824
:10006000A7300008A7300008A7300008A730000814
:10007000A7300008A7300008A7300008A730000804
:10008000A7300008A7300008A7300008A7300008F4
:10009000E52C0008A7300008A7300008A7300008AA
:1000A000A730000867290008A73000082B270008A0
:1000B000390900084909000859090008A730000853
:1000C000A7300008A7300008A7300008A7300008B4
:1000D000A73000087B2000083521000873230008A2
:1000E000A7300008A7300008A7300008A730000894
:1000F000A7300008A7300008A7300008A730000884
:10010000A7300008A730000869090008A7300008D8
:10011000A7300008A7300008A7300008A730000863
:10012000A7300008A7300008A7300008A730000853
:1001300000F002F800F068F80AA090E8000C824491
:100140008344AAF10107DA4501D100F05DF8AFF26E
:10015000090EBAE80F0013F0010F18BFFB1A43F0A5
:10016000010318475CDA00007CDA00000A444FF013
:10017000000C10F8013B13F0070408BF10F8014B06
:100180001D1108BF10F8015B641E05D010F8016B4B
:10019000641E01F8016BF9D113F0080F1EBF10F8AF
:1001A000014BAD1C0C1B09D16D1E58BF01F801CBD2
:1001B000FAD505E014F8016B01F8016B6D1EF9D555
:1001C0009142D6D37047000000230024002500266A
:1001D000103A28BF78C1FBD8520728BF30C148BFAA
:1001E0000B607047642909F05983752909F056831B
:1001F000632909F0D084732909F0D5840020704761
:100200001FB51FBD10B510BD09F04AFD1146FFF71F
:10021000F7FF00F097F809F068FD03B4FFF7F2FF6D
:1002200003BC02F0E3FE0000224B19680868B0E846
:10023000F00F80F30988BFF36F8F4FF0000080F359
:1002400011884EF00D0E704700000000064800684F
:10025000006880F3088862B661B6BFF34F8FBFF3C2
:100260006F8F00DF00BF00BF08ED00E0EFF30980F3
:10027000BFF36F8F0F4B1A6820E9F00F106008B5BD
:100280004FF0500080F31188BFF34F8FBFF36F8F93
:1002900005F054FF4FF0000080F31188BDE80840DE
:1002A00019680868B0E8F00F80F30988BFF36F8F12
:1002B000704700BFD4000020EFF3058070470000B6
:1002C0002DE9FC4107F0EEF800240425CDE90054A7
:1002D0004FF400782346424623A1274805F0A0FCAE
:1002E0000326CDE90064AF0100233A4623A1274845
:1002F00005F096FCCDE900640023424624A127487E
:1003000005F08EFCCDE900640023802224A127485B
:1003100005F086FCCDE9005400233A4624A1274885
:1003200005F07EFCCDE900540023424624A1274875
:1003300005F076FC2648006805F09DFCBDE8FC4110
:1003400007F0CAB81CB507F043FA2149042000237E
:10035000CDE9000182011FA1AFF29B0005F060FC16
:1003600006F004F800201CBD42616C616E63655F9D
:100370007461736B000000009F8F00084D50553969
:100380003235305F7461736B000000005F950008C8
:1003900073686F775F7461736B00000003800008FF
:1003A0006C65645F7461736B00000000410C0008B1
:1003B000505354574F5F7461736B00006B16000805
:1003C000444154415F7461736B0000003F1D00089D
:1003D0000000002073746172745F7461736B0000BD
:1003E0007047FEE7FEE7FEE7FEE770470CB5002228
:1003F0004C4800920192016841F4803101604FF451
:10040000A063016801F4003101910099491C009139
:10041000019911B900999942F3D10168890333D543
:100420000121019140490A6842F010020A600A68FD
:1004300022F003020A600A6842F002020A60416880
:10044000416041684160416841F4806141604168B8
:1004500021F47C114160416841F4E8114160016878
:1004600041F08071016001688901FCD5416821F08B
:1004700003014160416841F0020141604168C1F3FC
:1004800081010229FAD10CBD01920CBD254810B59D
:10049000016841F0010101604168244A1140416056
:1004A0000168234A11400160016821F48021016044
:1004B000416821F4FE0141604FF41F018160FFF7A4
:1004C00095FF1C494FF00060086010BD154A10B53B
:1004D0005068194B10F00C01184803D0042901D0C2
:1004E000082901D0036012E05168536801F47011CB
:1004F0004FF0020413F4803F04EB914102D05368A3
:100500009B0301D50E4B00E00B4B59430160516832
:100510000A4AC1F30311121D515C0268CA4002600D
:1005200010BD000000100240002002400000FFF853
:10053000FFFFF6FE08ED00E000127A000400002044
:1005400000093D0070B586B001214FF4047003F03E
:1005500054F84FF4004002F0E4FF1020ADF814000E
:1005600000248DF8174005A93F4802F05EFE0126E1
:10057000ADF814608DF8174005A93C4802F055FE0F
:100580003B4D284603F094FF4FF46020CDE9020470
:100590008DF8044000948DF805408DF81060694690
:1005A000284603F0A1FF0121284603F0C5FF284695
:1005B00003F0DFFF284603F0E1FF0028FAD12846C8
:1005C00003F0E3FF284603F0E5FF0028FAD106B068
:1005D00070BD10B5264C014607230122204604F0C9
:1005E00003F80121204603F0DCFF0221204604F03D
:1005F000CFF80028F9D02046BDE8104004F038B804
:100600002DE9F04100250E4607462C4608E0384605
:10061000FFF7DFFF0544052002F088FC641CE4B20C
:10062000B442F4D3B5FBF6F080B2BDE8F08110B56A
:100630000E20FFF7CEFF0AF0CFFF4FF066320D4BD2
:100640000BF01AF800220C4B0BF016F84FF080421A
:100650000A4B0BF011F86FF00B020BF0CAFEBDE86D
:1006600010400AF02DBD000000100140000C0140B8
:100670000024014066660A4000002640E17AF03F0F
:1006800010B5012188B0084602F0C0FF01210C20FE
:1006900002F0B3FF0121084602F0AFFF0121B64886
:1006A00002F04EFE0121B54802F04AFE4FF4004030
:1006B000ADF80C0004248DF80F4003A9B04802F0F7
:1006C000B4FD0820ADF80C008DF80F4003A9AD482B
:1006D00002F0ABFD684603F08FFC00204FF6FF717F
:1006E000ADF80410ADF80000ADF80600ADF802005A
:1006F00024076946204603F0FBF900231A4603212C
:10070000204603F01AFD04A803F089FC0A21ADF885
:10071000181004A9204603F0A3FB0121204603F092
:10072000B5FE01221146204603F09FFC0021204621
:1007300003F083FE0121204603F082FC08B010BDC7
:1007400010B588B00121022002F060FF01210420D1
:1007500002F053FF0121084602F04FFFC020ADF820
:10076000180004208DF81B0006A9854802F05DFDE5
:10077000684603F041FC00204FF6FF71ADF804100D
:10078000ADF80000804CADF80600ADF802006946F7
:10079000204603F0ADF900231A460321204603F05A
:1007A000CCFC03A803F03BFC0A21ADF8141003A90C
:1007B000204603F055FB0121204603F067FE01228D
:1007C0001146204603F051FC0021204603F035FE7F
:1007D0000121204603F034FCB0E710B588B00121B8
:1007E000042002F013FF0121082002F006FFC020C0
:1007F000ADF8180004208DF81B0006A9614802F02E
:1008000014FD684603F0F8FB00204FF6FF71ADF8C9
:100810000410ADF800005D4CADF80600ADF8020024
:100820006946204603F064F900231A460321204656
:1008300003F083FC03A803F0F2FB0A21ADF81410C7
:1008400003A9204603F00CFB0121204603F01EFE05
:1008500001221146204603F008FC0021204603F047
:10086000ECFD0121204603F0EBFB67E710B588B0F3
:100870000121082002F0CAFE0121042002F0BDFE81
:100880000320ADF8180004208DF81B0006A93C4891
:1008900002F0CBFC684603F0AFFB00204FF6FF717F
:1008A000ADF80410ADF80000394CADF80600ADF815
:1008B00002006946204603F01BF900231A46032173
:1008C000204603F03AFC03A803F0A9FB0A21ADF887
:1008D000141003A9204603F0C3FA0121204603F0B7
:1008E000D5FD01221146204603F0BFFB0021204622
:1008F00003F0A3FD0121204603F0A2FB1EE7002127
:10090000022807D003280BD004280CD005280DD0CE
:10091000002070474FF08042B2F924009184704764
:10092000194A243204E0194A243201E0184A2432D8
:10093000B2F90000118070474FF08040018A018AAF
:1009400021F00101018270470F48103001880188B1
:1009500021F00101018070470C48103001880188A6
:1009600021F0010101807047094810300188018899
:1009700021F00101018070470002300000011800E1
:1009800000080140000C0140000400400008004045
:10099000000C0040F8B50121082002F02EFE4FF4B3
:1009A0008070ADF8000010248A4E8DF803400325B6
:1009B0008DF802506946304602F037FC6001ADF810
:1009C00000008DF803408DF802506946304602F071
:1009D0002CFC2902304602F092FCF8BD70B57D482F
:1009E000001D016821F0F0010160016841F0300153
:1009F0000160794C0120C4F8A401C4F8A0010420CE
:100A000004F5D07402F07AFA00256560042002F043
:100A100075FA256070BD6F4810B5001D016821F0A2
:100A2000F0010160016841F0300101606A4C002072
:100A3000C4F8A001C4F8A401042004F5D07402F0A5
:100A40005DFA012020606060BDE81040042002F0E3
:100A500055BA70B55F480024001D016821F0F0010F
:100A60000160016841F0800101605B4D0126C5F81D
:100A7000A461304602F042FAC5F8A061012002F0FC
:100A80003DFA07E0641CE4B2FA2C03D9FFF7C3FF78
:100A9000012070BDD5F824010028F3D1C5F8A001CC
:100AA00070BD70B54C4C0025C4F8A0514948001DDC
:100AB000016821F0F0010160016841F0300101603E
:100AC000C4F8A451022004F5D07402F017FA0120F2
:100AD0002060022002F012FA256070BD70B53E4C15
:100AE0000026C4F8A0613B48001D016821F0F00118
:100AF0000160016841F0300101600125C4F8A45192
:100B0000022004F5D07402F0F9F92560022002F009
:100B1000F5F9266070BD2DE9F04105462D48001D10
:100B2000016821F0F0010160016841F030010160CD
:100B3000294E0027C6F8A0713C464FF00108E8098D
:100B4000C6F8A4016806050E022002F0D7F9C6F81F
:100B5000A081022002F0D2F9C6F8A071022002F0B2
:100B6000CDF9641CE4B2082CE9D3BDE8F0812DE98D
:100B7000F047814617480024001D016821F0F0016C
:100B80000160016841F080010160134E254627464F
:100B90004FF00108C6F8A071022002F0AFF9C6F8C4
:100BA000A0816006040ED6F8240108B1641CE4B2EA
:100BB000012002F0A3F96D1CEDB2082DEAD3B9F1C2
:100BC000000F04D0FFF76DFF2046BDE8F087FFF768
:100BD00085FFF9E7000C01400080214238B5012172
:100BE000402002F00AFD4FF48064ADF80040102070
:100BF0008DF803000320224D8DF802006946284637
:100C000002F013FB2146284602F079FB38BD38B5C7
:100C10000121082002F0F1FC4FF48064ADF800409F
:100C200010208DF803000320164D8DF80200694650
:100C3000284602F0FAFA2146284602F062FB38BD47
:100C4000114C124DD4F8A801C043C4F8A80168683B
:100C500005F0A8F9F6E710B50B4B002460B10B4A7C
:100C60001168491C1160814205D1D3F8A801C04325
:100C7000C3F8A801146010BDC3F8A84110BD00005E
:100C800000180140000C0140000023422000002019
:100C90002DE9F84F0121042002F0AFFC01210820CA
:100CA00002F0ABFC0121102002F0A7FC0121402042
:100CB00002F0A3FC0820ADF8000010248DF80340DA
:100CC00003258DF802506946E14802F0AEFA04208F
:100CD000ADF800008DF803408DF802506946DC48FD
:100CE00002F0A3FAADF800408DF803408DF80250F1
:100CF0006946D74802F099FA2026ADF800608DF8D1
:100D000003408DF802506946D14802F08EFA4FF444
:100D10008058ADF80080DFF83CB38DF803408DF8C3
:100D200002506946584602F080FAADF80060DFF8DC
:100D300028938DF803408DF802506946484602F02A
:100D400074FAE701ADF80070DFF810A38DF80340E6
:100D50008DF802506946504602F067FAE602ADF897
:100D600000608DF803408DF802506946504602F04D
:100D70005CFA0821B64802F0C4FA0421B44802F033
:100D8000C0FA1021B24802F0BCFA2021B04802F0AB
:100D9000B8FA4146584602F0B4FA2021484602F01B
:100DA000B0FA3946504602F0ACFA3146504602F0ED
:100DB000A8FABDE8F88F2DE9F04389468046012165
:100DC00089B0480302F019FC0121102002F015FC43
:100DD0004020ADF8100018249F4F8DF813400326D3
:100DE0008DF8126004A9384602F01FFA8020ADF891
:100DF00010008DF813408DF8126004A9384602F0F7
:100E000014FAB815ADF810008DF813408DF8126083
:100E100004A9384602F009FA7D15ADF810508DF896
:100E200013408DF8126004A9384602F0FEF9ADF8BF
:100E30001880DFF82C82ADF8149001260024ADF85C
:100E40001A60ADF8164005A9404602F051FE602731
:100E5000ADF80070ADF80260ADF80640ADF808409E
:100E6000ADF80E506946404602F07BFE0821404630
:100E700003F0C4F9ADF80070ADF80260ADF80640BB
:100E8000ADF80840ADF80E506946404602F09EFEAF
:100E90000821404603F0C2F9ADF80070ADF80260D9
:100EA000ADF80640ADF80840ADF80E506946404632
:100EB00002F0C8FE0821404603F0BAF9ADF8007010
:100EC000ADF80260ADF80640ADF80840ADF80E5040
:100ED0006946404602F0F0FE0821404603F0AEF9B4
:100EE0000121404603F062F90121404603F0A8F8D1
:100EF0000121404603F0AEF809B0BDE8F08308B523
:100F00000121402002F079FB0120ADF800004820CB
:100F10008DF8030069464F4802F087F908BDF0B527
:100F20000D46044601218DB0084602F066FB012102
:100F30004C4802F005FA0121C80202F05EFB0121D3
:100F4000402002F05AFB4FF42850ADF81C00282036
:100F5000404E8DF81F0007A9304602F066F94FF4A5
:100F60008040ADF81C0018208DF81F0003208DF87C
:100F70001E0007A9304602F058F9ADF824400024BD
:100F8000394FADF82050ADF82640ADF8224008A901
:100F9000384602F0ADFD0125ADF80040ADF8045033
:100FA0001126ADF80240ADF80640ADF8086069467C
:100FB000384602F055FF0420ADF80000ADF80450AB
:100FC000ADF80240ADF80640ADF808606946384615
:100FD00002F046FF0820ADF80000ADF80450ADF86F
:100FE0000240ADF80640ADF808406946384602F0C8
:100FF00037FF6020ADF80C006802ADF81A00ADF8BC
:101000000E50ADF81240ADF8144003A9384602F076
:1010100053FE0821384603F011F91B208DF82C00EF
:101020008DF82D508DF82E408DF82F500BA802F022
:1010300052F801220E21384603F017F801213846F4
:1010400003F008F80121384602F0FAFF0DB0F0BDB8
:10105000000801400018014000100140000C014050
:1010600000340140C0001600002C014030B50023C0
:10107000FA4A012411B1C2F8A04101E0C2F8A0313E
:101080000021C2F89431050602D5C2F8984101E06A
:10109000C2F89831C2F894414006491C000EC9B20A
:1010A0000829EED3C2F8A04130BD70B5EC4E002542
:1010B00005F1B000C0B20021FFF7D8FF00210846BB
:1010C000FFF7D4FF00211020FFF7D0FF002406EB2C
:1010D000C4000121405DFFF7C9FF641CE4B2802C0D
:1010E000F5D36D1CEDB2082DE2D370BD00B5002123
:1010F0008D20FFF7BBFF00211420FFF7B7FF002171
:10110000AF205DF804EBB1E700B500218D20FFF7BB
:10111000ADFF00211020FFF7A9FF0021AE205DF8F0
:1011200004EBA3E710B40021CD4B0A46002003EBEB
:10113000C004401CC0B262548028F8D3491CC9B214
:101140000829F3D310BCB0E710B57F2816D83F2983
:1011500014D80723A3EBD10301F00701C1F1070461
:101160000121A140BE4CDBB204EBC000002AC25CEE
:10117000C9B201D00A4300E08A43C25410BD2DE930
:10118000F04F203A9C460D468246884602F0FF0901
:101190000026DDF824B02FE0BCF10C0F08D0B149D7
:1011A00001EB09100027845D200607D55A4609E0A7
:1011B000AD4909EB490001EB8000F3E7BBF1000FFB
:1011C00012D0002229465046FFF7BEFF60066D1C74
:1011D000040EEDB2A5EB0800604507D10AF101004D
:1011E000454600F0FF0A05E00122EBE77F1CFFB255
:1011F000082FD9D3761CF6B26645CDD3BDE8F08F63
:101200000346012000E05843491EC9B2FBD2704793
:101210002DE9FF4F81B00027DDF838B01D4692461A
:1012200080463C464FF001094FEA5B0627E0281B49
:10123000401EC1B20A20FFF7E3FFBAFBF0F00A211B
:10124000B0FBF1F201FB120027B9691E8C4201DAF2
:1012500048B101273030C2B206FB0480C0B25B4601
:10126000CDF8009006E006FB0480C0B25B46202269
:10127000CDF800900299FFF782FF641CE4B2AC4203
:10128000D5D305B0BAE7F8B516460D460446012792
:1012900014E07A2C02D900241035EDB23A2D03D98E
:1012A00000242546FFF73EFF009732780C2329469D
:1012B0002046FFF764FF0834E4B2761C307800283B
:1012C000E7D1F8BD38B50121402002F096F94FF47E
:1012D000F070ADF8000010208DF8030002208DF8AA
:1012E00002006946614801F0A0FF012003F054FEAE
:1012F000002002F01DF9002003F002FE002003F0A0
:101300004BFE564C0020C4F89C01642004F5CE74BA
:1013100001F00CFE012020600021AE20FFF7A6FEA8
:101320000021D520FFF7A2FE00215020FFF79EFEEE
:101330000021A820FFF79AFE00213F20FFF796FE2C
:101340000021D320FFF792FE00210846FFF78EFE12
:1013500000214020FFF78AFE00218D20FFF786FE46
:1013600000211420FFF782FE00212020FFF77EFEDF
:1013700000210220FFF77AFE0021A120FFF776FE70
:101380000021C020FFF772FE0021DA20FFF76EFE79
:1013900000211220FFF76AFE00218120FFF766FE80
:1013A0000021EF20FFF762FE0021D920FFF75EFE4B
:1013B0000021F120FFF75AFE0021DB20FFF756FE47
:1013C00000213020FFF752FE0021A420FFF74EFE3F
:1013D0000021A620FFF74AFE0021AF20FFF746FEBE
:1013E000FFF7A0FE38BD10B50446B031C8B20021E9
:1013F000FFF73CFE102040EA14100021FFF736FEF4
:1014000004F00F00BDE8104000212FE62DE9FF4F4A
:101410009846DDF834C091468A4600254FEADC073D
:10142000DFF84CB015E00AEB0500C1B20098FFF7F9
:10143000DAFF07FB095000240BEB001605E0305DD6
:101440000121FFF713FE641CE4B24445F7D36D1C81
:10145000EDB2B5EBDC0FE6D3BDE8FF8F0000234211
:10146000240200203EC90008CAC400080018014038
:101470002ECF0008FE49085C70472DE9F84F012582
:101480008046ADF80050FA4800264670ADF800508E
:10149000F84FF94CDFF8E4B381464FF6FF7A25E0C8
:1014A000BDF8000010EA080F02D0C7F88C5101E027
:1014B000C7F88C61C4F8B051052001F01FFDC4F8D5
:1014C000B061052001F01AFDC4F8B051DBF83C0111
:1014D00030B199F80110BDF80020114389F80110CE
:1014E000BDF800100AEA4100ADF80000BDF80000A8
:1014F000FF28D5D9BDE8F84F102001F0FFBC2DE939
:10150000FC4700268DF800600125ADF80450DA4C48
:10151000C4F8B461DA4F3878FFF7AFFF7878FFF797
:10152000ACFF02208DF80000DFF85083D04F4FF65B
:10153000FF792CE0ADF804501DE0C4F8B05105204F
:1015400001F0DCFCC4F8B061052001F0D7FCC4F860
:10155000B051D8F83C0140B19DF80000BDF804102E
:10156000385C08439DF800107854BDF8041009EA6F
:101570004100ADF80400BDF80400FF28DDD91020BB
:1015800001F0BCFC9DF80000401C8DF800009DF8A7
:1015900000000928CED3C4F8B451BDE8FC87002070
:1015A000B34A01461154401CC0B20928FAD370470F
:1015B00070B5FFF7F4FFFFF7A2FFAD48B04AB0F8EF
:1015C0000340AF48083244800020012512F8103053
:1015D00000F101005B1E05FA03F12142C0B202D006
:1015E0001028F3D3002070BD70B5FFF7E1FF0AF0BB
:1015F00009FDA4499E4C05460860E0790AF002FD09
:10160000A1490860207A0AF0FDFCA049064608605E
:1016100060790AF0F7FC9E490860A0790AF0F2FCB4
:101620009C49974A086001209B49B5F1814F01D13F
:101630000B78C3B15268002A14D0984A964211DA46
:101640000A78002A0ED1964A1268B2F57A7F09DB31
:1016500008709449002008709349087093490870F5
:101660009349087070BD5060E7E708B501F092FC3F
:1016700000900A21684604F03BFCFFF7B5FFF8E74D
:1016800038B50121682001F0B8FF0820ADF800004E
:1016900010258DF8035003248DF8024069468548D3
:1016A00001F0C3FDE802ADF8000028208DF803002A
:1016B0006946814801F0B9FD2003ADF800008DF8BE
:1016C00003508DF8024069467C4801F0AEFD38BDFC
:1016D00070B5694D0020C5F8B401694C05F5DA759F
:1016E0002078FFF7CAFE6078FFF7C7FE0120286068
:1016F0005F484078732801D0012070BD002070BD84
:1017000070B55D4C054600200E46C4F8B4011020AB
:1017100004F5DA7401F0F2FB0120FFF7AEFE42207F
:10172000FFF7ABFE0020FFF7A8FE2846FFF7A5FE57
:101730003046FFF7A2FE0020FFF79FFE0020FFF7D4
:101740009CFE0020FFF799FE0020FFF796FE012087
:101750002060BDE87040102001F0D0BB10B5464CB1
:101760000020C4F8B401102004F5DA7401F0C6FBBF
:101770000120FFF782FE4220FFF77FFE0020FFF7E7
:101780007CFE0020FFF779FE0020FFF776FE0120A7
:101790002060BDE81040102001F0B0BB10B5364C01
:1017A0000020C4F8B401102004F5DA7401F0A6FB9F
:1017B0000120FFF762FE4320FFF75FFE0020FFF7E6
:1017C0005CFE0120FFF759FE0020FFF756FE0020C7
:1017D000FFF753FE0020FFF750FE0020FFF74DFEFD
:1017E0000020FFF74AFE01202060BDE810401020D5
:1017F00001F084BB10B5204C0020C4F8B4010120D6
:1018000004F5DA74FFF739FE4420FFF736FE0020B6
:10181000FFF733FE0120FFF730FE0320FFF72DFE18
:101820000020FFF72AFE0020FFF727FE0020FFF729
:1018300024FE0020FFF721FE01202060BDE81040BB
:10184000102001F05BBB10B50B4C0020C4F8B401B4
:10185000102004F5DA7401F051FB0120FFF70DFEB2
:101860004D20FFF70AFE0020FFF707FE002027E0CB
:1018700024060020008022420080214200002342F2
:1018800028000020A8010020980100209C010020D1
:10189000A0010020A4010020580100200000EC421B
:1018A000000200205A010020590100205B010020A5
:1018B0005C0100200014014000180140000C0140B0
:1018C000FFF7DBFD0120FFF7D8FD01202060BDE818
:1018D0001040102001F012BB10B52C4C0020C4F8B1
:1018E000B401102004F5DA7401F008FB0120FFF7C1
:1018F000C4FD4320FFF7C1FD0020FFF7BEFD00201F
:10190000FFF7BBFD5A20FFF7B8FD5A20FFF7B5FDE2
:101910005A20FFF7B2FD5A20FFF7AFFD5A20FFF71C
:10192000ACFD01202060BDE81040102001F0E6BAB7
:1019300010B5FFF713FFFFF711FFFFF70FFFFFF7DA
:101940002DFFFFF757FFBDE81040C5E7104810B561
:101950000078A0B10F4CE0790AF054FB0E49086002
:10196000207A0AF04FFB0D49086060790AF04AFBC3
:101970000B490860A0790AF045FB0A490860FFF7A7
:1019800017FE0AF03FFB0849086010BD00802142A5
:101990005801002024060020980100209C0100200E
:1019A000A0010020A4010020A80100207CB5FF4C6C
:1019B00000206D46215C2954401CC0B20828F9D390
:1019C000294640F2011001F060FA00202118097A3E
:1019D0002954401CC0B20828F8D369464FF48170DE
:1019E00001F053FA00202118097C2954401CC0B290
:1019F0000828F8D3694640F2031001F046FA7CBD8E
:101A0000EB490880081F01884906FCD5704700B5DE
:101A1000E64B0022985CFFF7F3FF521CD2B2182A63
:101A2000F8D300BDE3490880081F01884906FCD5AA
:101A3000704700B5DD4B0022985CFFF7F3FF521CA6
:101A4000D2B2182AF8D300BD30B5034600200129D0
:101A500008D10022D54C03E0A55C6840521CD2B2EC
:101A60009A42F9D3002908D1D04A323203E0545CBB
:101A70006040491CC9B29942F9D330BD2DE9F84FF5
:101A8000CA4C7B20CE4B20767D2084F82E00CA489D
:101A9000CA491B6800780093D1F800A0CB49C94A15
:101AA0000026D1F80090CA49C74DD2F800B0D1F84D
:101AB0000080C84906280F687DD2DFE800F0033EA9
:101AC000FAFAFBFA394640460AF012F949460AF09A
:101AD0000FF951460AF00CF96FF001010AF0B7FC5A
:101AE00029460AF0D7FA0AF039FA608339464046A7
:101AF0000AF0D8FB49460AF0FBF851460AF0D2FB3F
:101B00006FF001010AF0A3FC29460AF0C3FA0AF0BB
:101B100025FAA083584600990AF0EAF8834688F02F
:101B2000004039460AF0BEFB49460AF0E1F851464A
:101B30000AF0DEF86FF00101E3E00020A64909F0A9
:101B400067FA4FF0FF3B5A460AF053FC0746A1489C
:101B50008846D0F800A09D485146006881460AF0AA
:101B6000A1FB59460AF073FC0AF096F83A46434640
:101B700009F094FB0022994B09F07EFD09F0E6FC88
:101B8000608393480121076838460AF060FC51469B
:101B90000AF088FB49460AF085FBDFF8448241469B
:101BA0000AF01AF929460AF075FA0AF0D7F9A08363
:101BB0005146384600E011E00AF09AF849460AF02A
:101BC00097F841460AF008F9864909680AF004F9CD
:101BD00029460AF05FFA0AF0C1F9E083824AA34677
:101BE0008348B2F9021061848A461188494209B2D9
:101BF000A1848946B2F90410E18488467B49B1F991
:101C0000027027850A88524214B2ABF82A40007845
:101C10000090002879D0ABF82C60764829460068FF
:101C20000AF038FA0AF09AF9ABF820009BF818107D
:101C30008BF8001000998BF80110BBF81A105D4664
:101C40000A0A8BF802208BF80310BBF81C100A0A52
:101C50008BF804208BF80510BBF81E100A0A8BF8CD
:101C60000620E9714FEA1A21297285F809A04FEA86
:101C70001921A97285F80B904FEA1821297385F86C
:101C80000D80390AA973EF73210A29746C74A98D28
:101C90000A0AAA74E974010A2975687501211620D7
:101CA000FFF7D2FEA87595F82E00E875BDE8F88F0D
:101CB00000E02BE0394640460AF01AF849460AF09F
:101CC00017F851460AF014F86FF001010AF0BFFB53
:101CD00029460AF0DFF90AF041F96083A6835846E5
:101CE00000990AF005F8834687F0004041460AF063
:101CF000D9FA494609F0FCFF514609F0F9FF4FF0C7
:101D0000FF310AF0A4FB594660E714E0394640462B
:101D100009F0EEFF4FF0FF310AF099FB29460AF077
:101D2000B9F90AF01BF96083A683414638460AF0E8
:101D3000B9FA00994AE78988ABF82C106DE708B525
:101D400001F028F900903221684604F0D1F8FFF73D
:101D500095FEFFF76EFEFFF75AFEFFF727FEF2E74C
:101D600030B5054687B00121042001F046FC012171
:101D7000880301F042FC4FF40070ADF8100003201E
:101D80008DF8120018201C4C8DF8130004A9204671
:101D900001F04BFA2015ADF8100048208DF8130023
:101DA00004A9204601F041FA252027E06E06002014
:101DB000044800400438014049010020545A0020E2
:101DC000880100208C01002000007A44405A002045
:101DD000185A00202C5A00200000084000408F4074
:101DE00000004040900100200A0200200402002070
:101DF0004801002018000020000801408DF8140060
:101E000001218DF8151000248DF816408DF817105B
:101E100005A801F060F9ADF80440ADF80640ADF852
:101E20000840ADF80C400C20FA4CADF80A000095C3
:101E30006946204601F060FC012240F2255120460F
:101E400001F0D7FC0121204601F0C9FC07B030BDEC
:101E500030B50546012187B0084601F0CEFB0121CF
:101E6000202001F0CAFB0121480401F0CFFB012131
:101E7000082001F065FA2020ADF8100003208DF84D
:101E800012001820E44C8DF8130004A9204601F03C
:101E9000CCF94020ADF8100048208DF8130004A9BB
:101EA000204601F0C2F926208DF8140001218DF89A
:101EB000151000248DF816408DF8171005A801F0B4
:101EC0000AF9ADF80440ADF80640ADF80840ADF8A9
:101ED0000C400C20D14CADF80A0000956946204614
:101EE00001F00AFC012240F22551204601F081FC5C
:101EF0000121204601F073FCA8E730B50546012119
:101F000087B0084601F079FB0121102001F075FB34
:101F10000121880401F07AFB0121C14801F010FA87
:101F20004FF48060ADF8100003208DF812001820E7
:101F3000BC4C8DF8130004A9204601F076F9E11499
:101F4000ADF8101048208DF8130004A9204601F0C8
:101F50006CF927208DF8140002208DF8150000245C
:101F60008DF8164001208DF8170005A801F0B3F890
:101F7000ADF80440ADF80640ADF80840ADF80C40AF
:101F80000C20A94CADF80A0000956946204601F0E6
:101F9000B3FB012240F22551204601F02AFC012129
:101FA000204601F01CFC51E72DE9F04101EB002037
:101FB00004B24FF47A7794FBF7F007FB104009F076
:101FC000F4FA9A4A9A4B09F057FB054694FBF7F04E
:101FD0000E4609F0EAFA2A46334609F0A3F8BDE8AE
:101FE000F04109F06DB870B5924D06460C4611F0FF
:101FF000FF4F40D016F0FF4F3DD0304609F0ECFEC9
:1020000006F006F929460AF011F80ED8B4F5000FCB
:10201000304602DB06F0FCF803E006F0F9F880F049
:102020000040294609F0D8FE04462146304609F012
:10203000D3FE06468048006809F02EFE4FF0FF32BE
:102040000AF0D7F904460D46304609F025FE22462F
:102050002B4609F067F8044678480D46006809F0F9
:102060001BFE22462B4609F019F908F0D5F9BDE808
:10207000704009F025B8002070BD70B5654D40F284
:102080002551284601F06CFC00284DD00024012683
:10209000284601F0FEFBC1B269480068B0F57A7FBE
:1020A00042DB694B674D002218787B29295400D008
:1020B000D0B3401CC0B218700B2835D11A70A87A62
:1020C0007D2831D10020295C401C4C400928FADBD6
:1020D000687AA04200D03EBB5C48017849B9012132
:1020E00001705B4802705B4802705B4802705B489D
:1020F00002702979E878FFF757FF594C2060A979D9
:102100006879FFF751FF57490860297AE879FFF7A6
:102110004BFF01465448554E0078022806D0297AD4
:10212000E879FFF741FF3060002070BD2068FFF7BD
:102130005AFFF8E72DE9F04740F22551374801F002
:102140000FFC002865D03548001D00884849096803
:10215000B1F57A7F5DDB01263B4C002541280ED18D
:10216000217941290BD13A490A7842B9394A157087
:10217000394A15700E7039490D7034490D70C7B267
:102180003C493D4BDFF8F4C03D4A27714B2808D04D
:10219000492808D04A2806D012782AB1012A0BD043
:1021A0001EE016700CE01570A0F14102072A27D935
:1021B000082814DC0F7013E0432809D047280BD0FF
:1021C0001D708CF8005041281AD0452818D006E020
:1021D0001D708CF8006002E01E708CF800500D70CD
:1021E000DFF860802749DFF8A09008F10B08582835
:1021F0000AD059284AD07B2854D07D2859D04BE0AA
:10220000A0F140020A70EBE7D9F8000009F070FD78
:1022100040E0ABE0003801400014014000440040C1
:10222000100014000010014000480040FCA9F1D249
:102230004D62503F3333B33E880100208C010020B3
:10224000C801002030060020500000205C01002062
:1022500059010020580100205A0100205B01002094
:102260007401002078010020490100207C01002039
:10227000000200205D010020940100209501002053
:10228000960100200000C8424C010020D9F800004F
:102290000AF008F8C9F800006078012803D0022885
:1022A00009D05CE06670A07808F80070401CA0704F
:1022B00055E00220607098F803104046502906D07F
:1022C0004178232943D0A178E170C24629E05848DB
:1022D00006703CE0A178081A09F067F902460B463F
:1022E0000020544908F0A8F90646E0780F468046D9
:1022F000504410F8010C303809F057F932463B468B
:1023000009F0BAF906460F46A06809F0C5FC3B463D
:10231000324608F007FF08F0D3FEA060A8F10100E4
:10232000E070E0780428D5D29AF80100303803280C
:102330000DD2DFE800F002060900A168C9F800101C
:1023400005E03D49A06801E03C49A068086065706F
:10235000A570E57032213A48A56007F06BFBD9F80B
:10236000001011F1FF4F01D3C9F800500020BDE863
:10237000F08770B5334C40F22551204601F0F0FA59
:10238000F0B3204601F085FAC1B22F480068B0F5DD
:102390007A7F3FDB2D4A2A4C0025507965347B2912
:1023A000215400D060B3401CC0B250710B2831D111
:1023B0005571A07A7D282DD100210920FFF744FB1B
:1023C000617A884226D12248057022480570224849
:1023D000057022480570224805702179E078FFF7E2
:1023E000E3FD204D2860A1796079FFF7DDFD1E49EE
:1023F0000860217AE079FFF7D7FD01461B4800E02D
:1024000008E000781A4E022806D0217AE079FFF71A
:10241000CBFD3060002070BD2868FFF7E4FDF8E7D1
:1024200014490880081F01884906FCD57047000040
:10243000970100200000244050010020540100209A
:102440003B06002000480040C8010020500000204A
:10245000580100205A010020590100205B01002092
:102460005C01002074010020780100204901002057
:102470007C0100200444004008B50121602001F0E7
:10248000BCF84FF48070ADF8000048208DF80300D0
:102490006946604800F0C9FE08BD5F485F490278A0
:1024A00012B1D1F8202122B1D1F82011012904D094
:1024B00005E000210170012070470121017000201A
:1024C000704700210020401C3228FCDB491C3229C7
:1024D000F8DB704730B5514AD2F820414E4B00210D
:1024E00044B15981D2F820415D782C434FF0010569
:1024F00004D004E05C89641C5C81F3E75D709C7827
:102500004CB95C78012C03D1DC78641CDC709D70C4
:10251000DC78022C04D0D2F82021012A04D005E076
:10252000D9701981022030BD59709970DA78012A6A
:1025300011D11A89521C92B21A81824206D95A8943
:10254000824203D2D9701981012030BD5A8982425A
:1025500001D9D9701981002030BD30B52F4AD2F889
:1025600020412D4B002144B1D981D2F820411D7961
:102570002C434FF0010504D004E0DC89641CDC81AD
:10258000F3E71D715C794CB91C79012C03D19C795E
:10259000641C9C715D719C79022C04D0D2F82021BE
:1025A000012A04D005E099719981022030BD19718A
:1025B00059719A79012A11D19A89521C92B29A8141
:1025C000824206D9DA89824203D299719981012027
:1025D00030BDDA89824201D999719981002030BDDC
:1025E0000D4A0023508A18B90C49D1F8201109B1BD
:1025F000138209E0118A491C89B211820F2903D97B
:102600000120508213827047012800D1538200209C
:1026100070470000001401405C000020008022424E
:1026200070B50D460446012188B0084600F0E5FF6C
:102630000121C80200F0E1FF0121402000F0DDFF90
:102640000121CC4800F07CFE4FF4D442ADF81C20B0
:1026500028228DF81F2007A9C74800F0E6FDADF835
:1026600010400024C54EADF80C50ADF81240ADF846
:102670000E4003A9304601F03BFA01250F20ADF8CA
:102680000040ADF80450ADF80800ADF80240ADF8D8
:1026900006406946304601F0E3FB0420ADF8000037
:1026A000ADF80450ADF80240ADF80640ADF8084072
:1026B0006946304601F0D4FB0820ADF80000ADF8C3
:1026C0000450ADF80240ADF80640ADF80840694648
:1026D000304601F0C5FB0C20ADF80000ADF8045009
:1026E000ADF80240ADF80640ADF808406946304606
:1026F00001F0B6FB1B208DF818008DF819408DF8FD
:102700001A408DF81B5006A800F0E5FC01221E219E
:10271000304601F0AAFC0121304601F09BFC01216A
:10272000304601F08DFC08B070BD2DE9F0479448AB
:1027300000248169B1F5C86F11DD92490A7872B938
:10274000914A1268B2F57A7F09DB01220A708F493B
:102750000C708F490C708F490C708F490C7080463B
:102760000078864D000642F20F764FF4FA772CD4AB
:102770000221284601F08DFE38B30221284601F0DF
:1027800094FE98F80000400628463BD501F06AFE0A
:10279000A8F80600B8F804104246884201D25663F1
:1027A00000E05463401A516B08445061516A401A6A
:1027B00000D54042B84200DD51615069506288F84E
:1027C00000400021284601F083FD98F80100000632
:1027D00039D40421284601F05CFEA0B30421284628
:1027E00001F063FE98F801004006284648D501F044
:1027F0003BFEA8F80A00B8F80810424688420ED2FC
:1028000096630DE001F02EFE0146A8F8041098F83A
:10281000001041F0400188F800100221D2E79463D3
:10282000401A916B08449061916A401A00D5404269
:10283000B84200DD91619069906288F80140002102
:10284000284601F051FD98F80200000639D408210D
:10285000284601F01EFEA0B30821284601F025FEFF
:1028600098F80200400628464DD501F0FFFDA8F873
:102870000E00B8F80C10424688420ED2D6630DE026
:1028800001F0F2FD0146A8F8081098F8011041F097
:10289000400188F801100221D2E7D463401AD16BBD
:1028A0000844D061D16A401A00D54042B84200DDE8
:1028B000D161D069D06288F802400021284601F039
:1028C00027FD3648007802284BD098F80300C1460F
:1028D000000646D41021284601F0DBFD002840D038
:1028E0001021A846284601F0E0FD99F803004D4666
:1028F00040062AD5404601F0BBFD6882298A8842FD
:102900000ED22E640DE001F0B1FD0146A8F80C10C6
:1029100098F8021041F0400188F802100221CDE73A
:102920002C64401A296C08442862296B401A00D58F
:102930004042B84200DD2962286A2863EC70002119
:102940004046BDE8F04701F0F7BC4446404601F080
:102950008FFD2882E878022140F04000E870204690
:10296000EFE7BDE8F08705481030018821F001014C
:1029700001807047C000160000180140002C014083
:10298000700000205A0100200002002059010020A0
:10299000580100205B0100205C010020490100205B
:1029A0002DE9FC5F0024E8B3E1B3DAB3D3B3491EE9
:1029B000401E01F0FF09C7B2521E5B1E0121D6B2B4
:1029C0009DB2084600F019FE0121202000F015FEFE
:1029D0000121480600F01AFE01214FF4EB1000F02F
:1029E000AFFC0220ADF8000003208DF80200182093
:1029F000DFF81C848DF803006946404600F015FCA2
:102A00004FF0010AADF800A048208DF80300694698
:102A1000404600F00AFCFF4800230360016841F0D3
:102A2000010100E002E00160021D08E00120BDE8B4
:102A3000FC9F641CA4B2642C01D90220F7E7116842
:102A4000C907F6D00168834601600168016001682A
:102A50000160016841F010010160016801600168D6
:102A60000160EC491C310B60D1F80080DDF830C00A
:102A700048EA8C7CC1F800C0D1F800C04CEA076776
:102A80000F60D1F800C04CEA09570F600F6847EAA1
:102A900006460E600E682E430E60016821F00101AB
:102AA00001604FF6F07005E0641CA4B2844201D9C5
:102AB0000320BCE71168C907F6D1D748016841F087
:102AC00001010160D4491C310A6822F001020A6048
:102AD000D14A0C32146844F001041460021D1468D9
:102AE0001460CD4A143214681460CB4A403213602B
:102AF000121D13600A6842F001020A600168036057
:102B0000C4481430016841F00201016014208DF8BE
:102B100004008DF805A003218DF806108DF807A09C
:102B200001A800F0D8FA01220221584602F00EF95D
:102B300000207CE7F0B50646B648059D08300468DD
:102B4000640101D5002008E00468240101D50120BA
:102B500003E00068C0003CD50220B04C002704EB25
:102B60000014C4F8807599B3F600D4F88075374323
:102B7000C4F88075D4F8806546EA8101C4F88015F0
:102B8000D4F8801541EA4201C4F88015D4F88425B0
:102B900003F00F0122F00F02C4F88425D4F8842535
:102BA0000A43C4F884252979D5F8052041EA022191
:102BB000C4F88C152978D5F8012041EA0221C4F81F
:102BC0008815D4F8801541F00101C4F88015F0BDD6
:102BD00001E0FF20FBE77605C7E78E49083128B101
:102BE000012810D002281BD00520704708680A6809
:102BF00000F0010002F002020243086800F0806069
:102C000042EA1060704708680A6800F0010002F0AC
:102C100002020243086800F0006042EA5060704718
:102C200008680A6800F0010002F002020243086826
:102C300000F0805042EA9060704718B1012804D03B
:102C40000020704773480C3001E072481030006873
:102C500000F003007047F0B5704CDDE9057504EB3A
:102C60000014D4F8B06516F004061670D4F8B02538
:102C700033D0D2080A60D4F8B01501F002011970FF
:102C8000D4F8B41501F00F013970D4F8B8152970D3
:102C9000D4F8B815090A6970D4F8B815090CA970E8
:102CA000D4F8B815090EE970D4F8BC152971D4F818
:102CB000BC15090A6971D4F8BC15090CA971D4F8BE
:102CC000BC15090EE97150B1012805D151481030E9
:102CD000016841F02001016079E7520DCAE74D48D3
:102CE0000C30F5E770B588B002A907A8CDE900015E
:102CF00006AB05AA04A90020FFF7ADFF0498A0F5D4
:102D00008071813943D1464901200870454900202E
:102D100008704549087045490870454908709DF894
:102D200009009DF8081000EB012000B209F052F9EB
:102D3000404D294609F050F83F49064608609DF885
:102D40000B009DF80A1000EB012000B209F042F9D7
:102D5000294609F041F8394908609DF80D009DF8B1
:102D60000C1000EB012000B2044609F033F92946AB
:102D700009F032F801463248324D0078022808D076
:102D80004FF47A7094FBF0F009F024F9286008B051
:102D900070BD3046FFF727F9F8E738B500240B4639
:102DA00000902246214640F20160FFF7C3FE05462F
:102DB00040F6FF7301E0641CA4B22846FFF70DFF44
:102DC000072801D09C42F6D39C4201D3012038BD94
:102DD000002038BD00B5014686B00020FFF72DFF6A
:102DE000002833D002A8CDE9000105AB04AA03A94D
:102DF0000020FFF730FF0398122805D19DF810003E
:102E000010B99DF8140010B100208DF808001BE0E7
:102E10000014014000640040006600400060004073
:102E20005B010020580100205A01002059010020B8
:102E30005C01002000007A44740100207801002029
:102E4000490100207C0100209DF8080006B000BD6B
:102E500038B500240B4600902246214640F201700E
:102E6000FFF768FE054640F6FF7301E0641CA4B25C
:102E70002846FFF7B2FE072801D09C42F6D39C42B9
:102E800001D3012038BD002038BD38B500240091A1
:102E9000082322462146FFF74DFE054640F6FF7304
:102EA00001E0641CA4B22846FFF797FE072801D072
:102EB0009C42F6D39C4201D3012038BD002038BD8E
:102EC00010B5042000F047F938483949394A0068FC
:102ED000B0FBF1F3B0FBF1F14FF47A7041431370A2
:102EE000012050804FF0E020026942F002020261AE
:102EF0004161016941F00101016110BD70B54FF000
:102F0000E02500216C692B4AAB6912785043AA690D
:102F10009A42FCD002D2A3EB020302E0A4EB020629
:102F20003344194413468142F1D370BD70B5044651
:102F300003F060FC01280CD01E4D6888844203D346
:102F4000B4FBF0F003F02EF86888B4FBF0F100FB5E
:102F500011444FF47A706043BDE87040CEE770B51D
:102F6000054600244FF47A7603E03046FFF7C6FFAB
:102F7000641CAC42F9D370BD10B503F03BFC0128D2
:102F800003D0BDE8104004F0B8BA0A484168491CB3
:102F9000416010BD10B503F02DFC012803D0BDE841
:102FA000104003F030BA0348406810BD0400002010
:102FB00040420F00B400002030BF704772B6704727
:102FC00062B6704741060748826942F00102826199
:102FD0000548426822F0E062426042680A4342606B
:102FE0007047000000100240000001407047244973
:102FF0000A885206FCD5224AC1B2121D11807047C0
:1030000030B5044685B0012144F2040000F0F5FA21
:103010004FF40071ADF8101003218DF81210182034
:10302000184D8DF8130004A9284600F0FEF8291564
:10303000ADF8101004208DF8130004A9284600F004
:10304000F4F80020ADF804000094ADF80600ADF8E7
:103050000800ADF80C000C200B4CADF80A006946D6
:10306000204600F049FB002240F22551204600F0A6
:10307000C0FB0121204600F0B2FB05B030BD0000CE
:1030800000440040000801400038014009488047E2
:1030900009480047FEE7FEE7FEE7FEE7FEE7FEE73A
:1030A000FEE7FEE7FEE7FEE704480549054A064B52
:1030B000704700008D04000831010008F05A00201C
:1030C000F0600020F05C0020F05C002028490843FC
:1030D00028490860704730B50F23C2780178012570
:1030E000F2B1244A126801F1E02102F4E062C2F573
:1030F000E062120AC2F10404D3404278A24084780C
:103100001C401443220181F80024007800F01F01C4
:103110008D404009800000F1E020C0F8005130BD32
:1031200001F01F0085404809800000F1E020C0F850
:10313000805130BD104A114001430E48001F01600C
:1031400070470C4A121D0029116801D0014300E0AC
:103150008143116070474FF0E0210428086903D0D3
:1031600020F004000861704740F00400FAE7000016
:103170000000FA050CED00E080FFFF1F8F4910B53D
:10318000884206D10121042000F049FA00210420E0
:103190003BE08B49884206D10121082000F03FFA2C
:1031A0000021082031E08749884206D10121102002
:1031B00000F035FA0021102027E08349884206D12B
:1031C0000121202000F02BFA002120201DE07F4962
:1031D000884206D10121402000F021FA0021402040
:1031E00013E07B49884206D10121802000F017FAC4
:1031F0000021802009E0774988420AD18415012105
:10320000204600F00CFA00212046BDE8104000F0F6
:1032100006BA10BD10B50121084600F000FA0021E1
:10322000BDE81040012000F0FAB9F0B5CC780022DA
:1032300004F00F03E40601D58C7823430C784FF09B
:103240000F0C14F0FF0F4FF0010E1BD005680E8815
:103250000EFA02F42640A64210D196000CFA06F7A8
:1032600025EA070703FA06F5CE783D43282E02D05B
:10327000482E02D002E0446100E00461521C082A9A
:10328000E5D305600A88FF2A1CD94468002202F1B0
:1032900008060EFA06F50E882E40AE420ED19600B4
:1032A0000CFA06F7BC4303FA06F7CE783C43282E07
:1032B00000D14561CE78482E00D10561521C082A04
:1032C000E5D34460F0BD4FF6FF71018002218170AB
:1032D0000421C17070470246002092680A4200D063
:1032E00001207047806880B2704702460020D26893
:1032F0000A4200D001207047C06880B27047016167
:103300007047416170470AB1016170474161704780
:10331000C160704741F4803282618161826181695C
:10332000806970472C4B10B51A684FF680742240A4
:1033300042EA00100843186010BD2849C861704770
:10334000F0B5254C002801DAE36900E06368450D1B
:103350002E0185B2C0F30157B540C0F30342032FDD
:1033600005D0C6020AD503269640B34307E023F0F2
:103370007062636823F07063636002E0AB4343F004
:10338000706201B12A43002801DAE261F0BD626097
:10339000F0BD10B58A0721F003040F49120F214434
:1033A0000F238C6893409C438C608B689040034350
:1033B0008B6010BD0949C1F8DC007047000801406E
:1033C000000C0140001001400014014000180140B1
:1033D000001C01400020014000000140000020428C
:1033E000A548016841F0010101604168A34A11400C
:1033F00041600168A24A11400160016821F4802106
:103400000160416821F4FE0141604FF41F018160B9
:10341000704799490A6822F480320A600A6822F4E7
:1034200080220A60B0F5803F07D0B0F5802F03D12D
:10343000086840F4A02008607047086840F48030B5
:10344000F9E70346002059098B4A01290AD00229CD
:103450000AD0516A03F01F02012393400B4200D0AF
:10346000012070471168F5E7116AF3E718B50020ED
:103470004FF4A06400903120FFF7E3FF0099491C4E
:103480000091A14201D00028F5D03120FFF7D9FFEB
:10349000002800D0012018BD774A116821F0F801FA
:1034A00041EAC00010607047764908607047724B6F
:1034B0005A68084322F47C121043586070477149DF
:1034C000086670476C4A516821F00301014351605E
:1034D00070476948406800F00C007047664A5168C0
:1034E00021F0F001014351607047634A516821F4B3
:1034F000E0610143516070475F4A516821F46051B7
:1035000041EAC000506070475B4A0029517A01D0FF
:10351000014300E08143517270475A49C1F8D80015
:103520007047554A516821F440410143516070474A
:103530005149002281F8202081F82020012802D062
:10354000042802D1052081F8200070474E49086008
:10355000704749490A6A02430A6270474A49443936
:103560000860704730B5444A5168484B11F00C016F
:1035700003D0042901D0082901D0036012E051686A
:10358000536801F470114FF0020413F4803F04EB10
:10359000914102D053689B0301D53D4B00E03B4B6A
:1035A0005943016051680F2303EA1111394B5C5CE8
:1035B0000168E14041605468072505EA14241C5D58
:1035C00021FA04F48460546805EAD4241B5DD940D0
:1035D000C1605268032303EA92322E4B1B1F9A5C90
:1035E000B1FBF2F1016130BD234A0029516901D0DC
:1035F000014300E08143516170471F4A00299169EE
:1036000001D0014300E08143916170471A4A0029CB
:10361000D16901D0014300E08143D1617047164A6E
:103620000029D16801D0014300E08143D160704797
:10363000114A0029116901D0014300E08143116161
:10364000704711494039086070470E49C864704797
:103650000949C87170470848416A41F08071416268
:103660007047054A0146002092680A4200D00120B6
:103670007047014988727047001002400000FFF84F
:10368000FFFFF6FE000042428004424200127A0030
:1036900000093D00C4000020C44910B588420AD189
:1036A00001218C032046FFF7BAFF2046BDE81040F9
:1036B0000021FFF7B4BFBE49884202D101214C046A
:1036C00010E0BC49884202D101218C040AE0BA49C9
:1036D000884202D10121CC0404E0B84988420AD1D1
:1036E00001210C052046FFF7A3FF2046BDE810404E
:1036F0000021FFF79DBF10BD30B50446008A85B09C
:103700000D464CF6FF710840E98801432182A089EB
:103710004EF6F3110840A9882A8911436A890243A9
:103720001143A181A08A4FF6FF410840A9890143B6
:10373000A1826846FFF716FF9C48844201D1039896
:1037400000E00298A189090400EBC00101EB001020
:10375000296801D5490000E08900B0FBF1F064223E
:10376000B0FBF2F109010B096FF018056B4300EB98
:103770008300A3891D044FF0320306D503EBC0007C
:10378000B0FBF2F000F0070005E003EB0010B0FB27
:10379000F2F000F00F000843208105B030BD4FF477
:1037A0001651016000218180C18001810C2242817B
:1037B0008181704710B5028A4FF2FF031A400B88CF
:1037C0004C8823438C88C9880C43234313430382CA
:1037D00010BD0021018041808180C1807047002997
:1037E000818902D041F4005101E021F4005181812E
:1037F000704710B5C1F3421301F01F040121A1402D
:10380000012B07D0022B07D01430002A026805D004
:103810000A4304E00C30F8E71030F6E78A43026010
:1038200010BD002A828A01D00A4300E08A438282C6
:103830007047028A22F00F020282028A0A43028241
:103840007047828922F40062828182890A438281E0
:1038500070470029818902D041F0020101E021F086
:10386000020181817047028A22F020020282028ACC
:103870000A43028270470029018A02D041F4804144
:1038800001E021F4804101827047C1F30801818089
:1038900070478088C0F308007047818941F00101BA
:1038A00081817047028BD2B20283028B42EA0121EE
:1038B00001837047028B02F47F420283028B0A432A
:1038C000028370470029818A02D041F0200101E083
:1038D00021F02001818270470029818A02D041F0C5
:1038E000100101E021F01001818270470029818AD6
:1038F00002D041F0080101E021F008018182704707
:103900000029818902D041F4004101E0C1F30E0198
:10391000818170470029818A02D041F4006101E071
:1039200021F4006181827047828A22F0040282823F
:10393000828A0A43828270470029818A02D041F03C
:10394000020101E021F0020181827047024600205D
:1039500012880A4200D001207047C9430180704795
:1039600070B501F01F0501260024C1F3421306FAC9
:1039700005F2012B0FD0022B0FD0838A4FEA1121C1
:103980000088134206FA01F600EA060001D000B1F1
:103990000124204670BD8389F0E7038AEEE70A0A16
:1039A00001219140C9430180704700000038014067
:1039B0000044004000480040004C004000500040DF
:1039C000F94910B5884202D10121C41486E0B0F152
:1039D000804F09D0F54988420DD101210220FFF71F
:1039E00027FE0021022064E001210846FFF720FEA7
:1039F000002101205DE0EE49884206D1012104202A
:103A0000FFF716FE0021042053E0EA49884206D160
:103A100001210820FFF70CFE0021082049E0E649BB
:103A2000884206D101211020FFF702FE002110205C
:103A30003FE0E249884206D101212020FFF7F8FD4E
:103A40000021202035E0DE49884202D101214414C2
:103A500044E0DC49884202D10121CC043EE0DA494D
:103A6000884202D101210C0538E0D849884202D1B0
:103A700001214C0532E0D649884206D1012140207F
:103A8000FFF7D6FD0021402013E0D249884206D13D
:103A900001218020FFF7CCFD0021802009E0CE49E4
:103AA00088420AD1841501212046FFF7C1FD00217B
:103AB0002046BDE81040FFF7BBBDC849884202D18F
:103AC00001210C040AE0C649884202D101214C04BC
:103AD00004E0C44988420AD101218C042046FFF742
:103AE0009EFD2046BDE810400021FFF798BD10BDA7
:103AF00030B50288AC4CB24DA0420DD0A8420BD0DC
:103B0000B0F1804F08D0A94B984205D0A84B9842FD
:103B100002D0A84B984203D122F070034A881A437E
:103B2000A54B984206D0A54B984203D022F440738F
:103B3000CA881A4302808A8882850A880285A04240
:103B40000AD0A84208D0A54A904205D0A44A904283
:103B500002D0A44A904201D1097A018601218182D2
:103B600030BD30B5028C22F001020284028C8388C1
:103B7000048B22F0020224F073050C882C430D897B
:103B800015434A882A43884DA8420BD08C4DA84241
:103B900008D0924DA84205D0914DA84202D0914D37
:103BA000A8420DD122F008054A8923F440732A4324
:103BB00022F004058A882A438D891D43CB892B4333
:103BC00083800483C9888186028430BD70B5028CED
:103BD00022F010020284028C8388048B0D8824F466
:103BE000E6464FF6FF7404EA052535430E8922F0B8
:103BF000200204EA061616434A8804EA02123243F7
:103C0000694EB04202D06E4EB04215D122F080060D
:103C10004A8923F4406304EA0212324322F0400648
:103C20008A8804EA021232438E8904EA86061E4319
:103C3000CB8904EA8303334383800583C9880187E2
:103C4000028470BD70B5028C22F480720284028CF2
:103C50008388848B0D8824F0730425430E894FF6E6
:103C6000FF7422F4007204EA062616434A8804EA26
:103C7000022232434C4EB04202D0514EB04215D1D6
:103C800022F400664A8923F4405304EA02223243B4
:103C900022F480668A8804EA022232438E8904EA8A
:103CA00006161E43CB8904EA0313334383808583BE
:103CB000C9888187028470BD70B5028C22F480525D
:103CC0000284058C8288838B0C8823F4E6464FF6A9
:103CD000FF7303EA0424344325F400560D8903EAF4
:103CE000053535434E8803EA06362E432E4DA8424D
:103CF00002D0334DA84205D122F480458A8903EAD7
:103D000082122A4382808483C988A0F840100684E6
:103D100070BD828B22F440628283828B4FF6FF73E8
:103D200003EA01210A4382837047828B22F00C024E
:103D30008283828B0A4382837047028B22F4406223
:103D40000283028B4FF6FF7303EA01210A430283C9
:103D50007047F0B5048C24F010040484078B048CA5
:103D60004FF6FF7527F4734705EA03333B4305EA33
:103D700002221A430C4B05EA011698420ED0104B52
:103D800098420BD0B0F1804F08D0084B984205D034
:103D9000074B984202D0074B984225D124F02001CE
:103DA000314341F0100124E0002C014000040040A8
:103DB00000080040000C00400010004000140040CB
:103DC00000340140004C01400050014000540140CB
:103DD00000180040001C004000200040004001404E
:103DE000004401400048014024F0A0030B4343F08D
:103DF000100102830184F0BD028B22F00C020283C9
:103E0000028B0A430283704770B5048C24F00104CE
:103E10000484058B048C4FF6FF7606EA03131343E4
:103E200025F0F305F84A2B4390420ED0F74A904212
:103E30000BD0B0F1804F08D0F54A904205D0F54A3A
:103E4000904202D0F44A904202D124F0020201E0F2
:103E500024F00A020A4342F001010383018470BD89
:103E60002DE9F84F0D4604460888E74FDFF89CC35C
:103E7000DFF89C83DFF89C934988AA882B894FF050
:103E8000804A48B304282FD04FF6FF76082893467F
:103E900032D0208C9E4620F480502084A38B208C2E
:103EA00006EA0132009223F4734306EA0B221A4316
:103EB00006EA0E331343BC420AD0644508D0544589
:103EC00006D0444504D04C4502D0D34A944242D156
:103ED00020F40050009940E02046FFF795FFE98864
:103EE0002046BDE8F84F87E72046FFF732FFE98814
:103EF0002046BDE8F84F20E7208C20F48070208415
:103F0000B4F81CE0208C06EA031306EA01222EF026
:103F1000F30E43EA0B0343EA0E030092BC420AD0BD
:103F2000644508D0544506D0444504D04C4502D0E1
:103F3000B94A944203D120F40070009901E020F4C2
:103F40002060084340F48070A3832084E9882046E1
:103F5000BDE8F84FE9E620F40240084340F4805001
:103F6000A3832084E9882046BDE8F84FD1E62DE9F7
:103F7000F0410C46002649880746012501B9022672
:103F8000A288012A00D102252088238900283846EA
:103F900010D0FFF7DEFEE1883846FFF7CEFE23891A
:103FA0002A4631463846FFF72FFFE1883846BDE8FC
:103FB000F04121E7FFF728FFE1883846FFF71CFFB3
:103FC00023892A4631463846FFF7C3FEE188384642
:103FD000BDE8F041B1E610B50A884B88CC881A4399
:103FE0008B8823431A430B891A434B8989891A43C7
:103FF0000A43A0F8442010BD4FF6FF7181800021D4
:104000000180C180418001727047002101804180A0
:104010008180C180018141818181C18170470021FE
:104020000180418001228280C1800181704700218E
:10403000018041808180C1800181418181817047FF
:104040000029018802D041F0010101E021F00101C5
:1040500001807047002930F8441F02D041F400412C
:1040600001E0C1F30E0101807047002A828901D06E
:104070000A4300E08A43828170478182704711437E
:10408000A0F848107047002A828901D00A4300E056
:104090008A4382817047018921F0070101817047BD
:1040A000028922F070020A430281704700B503467C
:1040B000FFF7F6FF188940F00700188100BD70B5C2
:1040C00016460D46602904464FF0010231460AD0DB
:1040D000FFF79AFE29462046FFF7E2FF208940F0CD
:1040E0000700208170BDFFF734FEF3E730B5048987
:1040F0004FF6FF7505EA03231343E4B20B43234352
:10410000038130BD10B50446FFF7F0FF208940F071
:104110007700208110BD10B50446FFF7E7FF208926
:1041200040F48040208110BD018582827047028862
:1041300022F070020A430280704770B50589048B33
:10414000068C25F007050D434FF6FC410C4040F26C
:1041500001110C434FF6FF7101EA031126F022060C
:104160001143314305810483018470BD028B22F029
:1041700070020A4302837047028B4FF6FF7322F4EA
:10418000E04203EA0121114301837047828B22F050
:1041900070020A4382837047828B4FF6FF7322F4CA
:1041A000E04203EA0121114381837047002901881D
:1041B00002D041F0800101E021F0800101807047D0
:1041C0000029818802D041F0040101E021F00401BE
:1041D000818070470029818802D041F0080101E008
:1041E00021F00801818070470029818802D041F0C8
:1041F000010101E021F0010181807047028B22F072
:1042000008020A4302837047002C01400034014039
:104210000004004000080040000C0040028B4FF6F4
:10422000FF7322F4006203EA012111430183EAE7EC
:10423000828B22F008020A438283E4E7828B4FF6E6
:10424000FF7322F4006203EA012111438183DAE75C
:10425000028B22F004020A430283D4E7028B4FF65A
:10426000FF7322F4806203EA012111430183CAE74C
:10427000828B22F004020A438283C4E7828B4FF6CA
:10428000FF7322F4806203EA012111438183BAE7BC
:10429000028B22F080020A430283B4E7028B4FF6BE
:1042A000FF73C2F30E0203EA012111430183AAE75F
:1042B000828B22F080020A438283A4E7828B4FF62E
:1042C000FF73C2F30E0203EA0121114381839AE7CF
:1042D000028C22F002020A43028494E7028C22F04C
:1042E00008020A4302848EE7028C4FF6FF7322F025
:1042F000200203EA01111143018484E7028C4FF686
:10430000FF7322F0800203EA0111114301847AE76E
:10431000028C4FF6FF7322F4007203EA012111436D
:10432000018470E7028C4FF6FF7322F4006203EA07
:1043300001211143018466E7028C4FF6FF7322F4DA
:10434000005203EA0131114301845CE710B50123F7
:10435000048C8B409C430484038C8A401343038465
:1043600010BD10B50423048C8B409C430484038C43
:104370008A401343038410BD30B50124058C00F13D
:1043800018038C40A543058489B108290FD0091F63
:10439000C1F34E001844016821F4E0410160016856
:1043A0004FF6FF7303EA02221143016030BD03EBB5
:1043B0005100016821F0700101600168F4E70029F3
:1043C000018802D041F0020101E021F002010180E8
:1043D00019E70029018802D041F0040101E021F031
:1043E000040101800FE70029818802D041F080019B
:1043F00001E021F08001818005E7028822F00802B7
:10440000028002880A430280FDE6828822F0700260
:10441000828082880A438280F5E6028922F00702C0
:10442000028102890A430281EDE6028922F08002BC
:10443000028102890A430281E5E68184E3E68185FF
:10444000E1E68186DFE60187DDE68187DBE6A0F82D
:104450004010D8E6028822F44072028002880A43A3
:104460000280D0E6808ECEE6008FCCE6808FCAE652
:10447000B0F84000C7E6808CC5E6008DC3E6024672
:104480000020128A0A4200D00120BCE6C943018202
:10449000B9E602460020138A92890B4202EA010221
:1044A00002D0002A00D00120ADE6C9430182AAE66D
:1044B000C54910B5884202D1012144150AE0C3491B
:1044C000884202D10121041504E0C14988420AD181
:1044D0000121CC032046FFF7A2F82046BDE810409A
:1044E0000021FFF79CB810BD10B54268B94B0C799C
:1044F0001A400B6842EA0422134343608268B64BB9
:104500001A40D1E9024323434C7942EA440213435F
:104510008360C26A097C22F47002491EC9B242EA71
:104520000151C16210BD00210160017141718160C2
:10453000C1600121017470470029816802D041F0F7
:10454000010101E021F001018160704700298168CB
:1045500002D041F4807101E021F4807181607047E4
:10456000002A4268C9B201D00A4300E08A4342608F
:104570007047816841F00801816070470146002062
:104580008968090700D501207047816841F004015E
:1045900081607047014600208968490700D50120E5
:1045A00070470029816802D041F4A00101E021F4A4
:1045B000A00181607047014600208968490200D54A
:1045C000012070474268491E22F4604242EA4131AC
:1045D000416070470029416802D041F4006101E068
:1045E00021F400614160704770B5072609290AD996
:1045F000C568A1F10A0404EB4404A640B543A340F6
:104600001D43C56007E0056901EB4104A640B543C1
:10461000A3401D4305611F23072A09D2446B521E84
:1046200002EB820293409C4391400C43446370BD73
:104630000D2A09D2046BD21F02EB820293409C43E5
:1046400091400C43046370BDC46A0D3A02EB8202D0
:1046500093409C4391400C43C46270BD0029816823
:1046600002D041F4801101E021F480118160704793
:10467000C06C80B2704754484C30006870470029C5
:10468000416802D041F4806101E021F48061416021
:1046900070470029416802D041F4805101E021F4C3
:1046A000805141607047826822F4E0420A43826090
:1046B00070470029816802D041F4004101E021F4F3
:1046C0000041816070470029816802D041F40211E5
:1046D00001E021F4021181607047014600208968E1
:1046E000890200D50120704770B5072609290AD92B
:1046F000C568A1F10A0404EB4404A640B543A340F5
:104700001D43C56007E0056901EB4104A640B543C0
:10471000A3401D430561836BC3F30154121B921C1C
:1047200002EB82021F249440A34391400B43836316
:1047300070BD826B491E22F4401242EA015181632E
:10474000704708B508440090026008BD08B50844E9
:1047500028300090006880B208BD42681F4B1A40A4
:104760000A4342607047416282627047426822F0A9
:104770001F020A4342607047134908310028086845
:1047800002D040F4000001E020F40000086070470F
:104790000246002012680A4200D001207047C94337
:1047A0000160704710B50246002054680B0AC9B278
:1047B0000C401168194202D0002C00D0012010BD1D
:1047C0006FEA112101607047002401400028014078
:1047D000003C0140FFFEF0FFFDF7F1FFFFFD3FFF52
:1047E000FE4910B588424FF0010101D14C0601E0AD
:1047F0004FF080642046FEF71BFF2046BDE81040C6
:104800000021FEF715BF10B50368002223F0020354
:104810000360036843F0010303604FF6FF7300E099
:10482000521C4468E40701D19A42F9D14268D20788
:104830003ED08A79012A02683CD022F080020260D0
:10484000CA79012A026838D022F0400202600A7A4E
:10485000012A026834D022F0200202604A7A012A3A
:10486000026830D022F0100202608A7A012A0268BF
:104870002CD022F008020260CA7A012A026828D0ED
:1048800022F0040202608A78CC78920742EA04623D
:104890000C7942EA04424C79098842EA0452491EE2
:1048A0000A43C261016821F001010160002114E0A6
:1048B000002010BD42F08002C1E742F04002C5E78F
:1048C00042F02002C9E742F01002CDE742F00802B0
:1048D000D1E742F00402D5E7491C4268D20701D073
:1048E0009942F9D14068C007E2D1012010BDF0B56E
:1048F000827ABB4D012191402A6842F001022A6070
:10490000B74E1C3632688A433260B54A047BB54BD9
:104910000C32A4B914688C4314604488C78844EAF4
:104920000744877A03EBC707C7F84046048887889F
:1049300044EA0744877A03EBC707C7F84446047B79
:10494000012C12D114680C431460847A026803EBC2
:10495000C4044FEA3242C4F84026847A426803EB2A
:10496000C4034FEA3242C3F844269D4AC37A121D5B
:10497000002B136806D00B431360994A0389143245
:1049800013B104E08B43F7E713688B43136003898B
:10499000012B02D113680B431360407B012802D125
:1049A000306808433060286820F001002860F0BDBE
:1049B00000218171C171017241728172C172817075
:1049C000C1700321017102214171012101807047F1
:1049D00083490A6842F001020A600A6843F60E73CE
:1049E0009A430A600A6842EA00200860086820F0DA
:1049F0000100086070470029016802D041F480314D
:104A000001E021F48031016070470029016813D072
:104A100041F080010160D0F8841141F48071C0F848
:104A20008411D0F8941141F48071C0F89411D0F839
:104A3000A41141F4807112E021F080010160D0F8EE
:104A4000841121F48071C0F88411D0F8941121F4FC
:104A50008071C0F89411D0F8A41121F48071C0F8CD
:104A6000A411704730B50246002093685B0108D45A
:104A70009068000101D5012003E09068C00037D59F
:104A8000022002EB0012D2F8803103F00103C2F8D9
:104A900080310B7A73B3D2F880414D681C434B7A56
:104AA00043EAC5031C43C2F880418B7A03F00F032D
:104AB0008B72D2F8843123F00F03C2F88431D2F81C
:104AC00084318C7A2343C2F88431CB7ACC6843EAB0
:104AD0000423C2F88831CB7B096943EA0121C2F87B
:104AE0008C11D2F8801141F00101C2F8801130BD63
:104AF000042030BDD2F880314C7A23430C8843EA3D
:104B00004453C2F88031D0E7002221B1012905D0F9
:104B1000022906D112E08268334801E082683348F6
:104B200002403349501A8A4214D00ADCA2B16FF015
:104B3000806010180FD002280CD10FE082682D4839
:104B4000EEE7B0F5007F09D02B49401803D0B0F54F
:104B5000003F03D0002070470220704701207047BB
:104B600041B101290AD0022903D1816841F4000131
:104B700081607047816841F08001F9E7816841F404
:104B80000041F5E710B500EB0113D3F8B04114F084
:104B900004041472D3F8B04145D0E4085460D3F84B
:104BA000B04104F002045472D3F8B44104F00F048D
:104BB0009472D3F8B441240AD474D3F8B841D472AF
:104BC000D3F8B841240A1473D3F8B841240C5473B1
:104BD000D3F8B841240E947310E000000064004044
:104BE000006600400060004003000004000300086D
:104BF00000010008000003100001FFF7D3F8BC41DA
:104C0000D473D3F8BC41240A1474D3F8BC41240CE7
:104C10005474D3F8BC311B0E937439B1016941F05F
:104C20002001016110BD640D1460B8E7C16841F056
:104C30002001C16010BD21B1016941F02001016175
:104C40007047C16841F02001C160704702460020F2
:104C500029B1012902D1106900F003007047D06822
:104C6000FAE700234FF6FF7221B1012917D002297C
:104C700024D03AE0016821F0020141F00101016015
:104C800000E0521E416801F00301012901D0002A11
:104C9000F7D1406800F00300012823D124E0016827
:104CA00021F00301016000E0521E4168890701D034
:104CB000002AF9D14068800714D115E0016821F07D
:104CC000010141F00201016000E0521E416801F063
:104CD0000301022901D0002AF7D1406800F0030047
:104CE000022801D0002300E0012318467047026823
:104CF000002122F0010242F002020260406800F04E
:104D00000300022800D101210846704702684FF6CF
:104D1000FF71002322F00202026000E0491E426897
:104D2000920701D50029F9D14068800700D40123FA
:104D3000184670478069C0F302100001704780690F
:104D4000000E70478069C0F307407047002A42692F
:104D500001D00A4300E08A434261704702460020C6
:104D600011F4700F03D0926904E001207047CB0169
:104D700004D552680A401103F7D170470B0101D5E1
:104D80009268F7E78B0101D5D268F3E71269F1E782
:104D9000534A914202D1002181617047C1F313024D
:104DA0008B0101D5C26070474B0101D5026170478C
:104DB000090101D5826070474260704702460020B9
:104DC00053690B424AD0B1F5807F3BD013DC0829F0
:104DD0002ED007DC012926D0022927D004293DD175
:104DE000D0682BE0102925D0202926D0402935D1A4
:104DF0001069102130E0B1F5004F2BD00BDCB1F57C
:104E0000007F22D0B1F5806F22D0B1F5006F25D19F
:104E10009069702120E0B1F5803F11D0B1F5003FDD
:104E20001CD15068E5E790682E4915E0D06802E093
:104E3000D068DEE7106903210EE0106908210BE05D
:104E40005068FBE79069012106E09069022103E0C8
:104E5000906900E05068042100F03BB8704730B51D
:104E6000082310240422B1F5007F1DD010DC202976
:104E700029D007DC012921D0042922D0082900D11A
:104E8000C46030BD402920D0B1F5807FF9D10BE05E
:104E90000025B1F5004F06D008DCB1F5806F03D0D6
:104EA000B1F5006FEDD18561426030BDB1F5803F55
:104EB0000DD0B1F5003FF8D1446030BD09498160A3
:104EC00030BDC36030BD036130BD046130BD43609F
:104ED00030BD024600200A4200D001207047000089
:104EE0007000F0300101010010B50120FEF7A9FBB0
:104EF000BDE810400020FEF7A4BB1F4908607047C2
:104F00001D49091F086070471B49843108607047BC
:104F10001A4A118821F46071014311807047174AC1
:104F2000118821F07F01014311807047134A08B5B1
:104F30002C3A10440090016008BD104908B52C3986
:104F400008440090008808BD0B489C300068C0B23F
:104F500070470A480830018841F00101018070471C
:104F60000548A0300068C0B2704704480830018886
:104F700041F002010180704704860D422C6C004014
:104F800010B501210C072046FEF752FB2046BDE874
:104F900010400021FEF74CBB2149086270472049B0
:104FA000086170471F4A116821F0E0010143116058
:104FB00070471B49C1F8A00070471A4B1A6822F0CD
:104FC000030202431A601848026842F004020260B9
:104FD000012905D020BF016821F00401016070475C
:104FE00030BFF8E70F48016841F004010160016833
:104FF00041F0020101600C48016841F004010160C8
:1050000030BF7047074A0146002052680A4200D06C
:105010000120704703490A6842EA8000086070472F
:1050200000000E420070004010ED00E000F10801A9
:105030004FF0FF32C0E90112C1600161002101603F
:10504000704700210161704742684A6093688B6035
:1050500093685960916008610168491C016070475C
:1050600030B50C68621C02D000F1080202E002694F
:1050700004E01A4653681D68A542FAD953684B608C
:1050800099608A60516008610168491C016030BD07
:10509000D0E9013201699A60D0E901235A604A6877
:1050A000824201D182684A60002202610868401E83
:1050B0000860704770B50D46040005D140F21B1220
:1050C000F2A1F7A004F06CFB02F0ECF9D4E90F2098
:1050D000216802FB001161600021A1632168A160C9
:1050E0000A46D4E90F01401E00FB0121E160214680
:1050F0004FF0FF3001F8440F487004F110004DB13B
:10510000FFF794FF04F12400FFF790FF02F0E4F9A9
:10511000012070BD21690029F8D001F0A3FA002810
:10512000F4D0E3494FF080500860BFF34F8FBFF3D6
:105130006F8FEBE72DE9F04117460E46050005D1CC
:105140004FF4C472D1A1D6A004F02AFBBEB105FB76
:1051500006F0543002F056FA04000ED004F1540068
:105160007EB12060C4E90F5620460121FFF7A2FF5F
:1051700084F8507000212046A164BDE8F081002031
:10518000E7E72460EEE72DE9F041856B174604461A
:105190000026026C82B1C7B1E06804F0FEFBE16852
:1051A000206C091AE1602268914202D26168081AF3
:1051B000E060022F16D017E02068A8B9606801F0FF
:1051C00062FB0646002060600EE0A06804F0E5FB8C
:1051D000216CA0680844A0606168884204D32068FC
:1051E000A06001E005B16D1E6D1CA5633046C4E7EB
:1051F0002DE9F3410F4600980026846C2CB940F647
:10520000CE12A2A1A6A004F0CBFAA06BE16B88425B
:1052100005D340F6CF129DA1A1A004F0C1FAA06B66
:10522000E16B88420CD294F945503A4669462046D3
:10523000FFF7A9FF0646681C05D06D1C84F8455091
:105240003046BDE8FC81606A0028F9D004F12400F2
:1052500001F008FA0028F3D00126F1E72DE9F0412A
:10526000044602F01FF994F9455004F1240610E0B9
:10527000A06C20B100212046FFF7BAFF04E0606A6D
:1052800048B1304601F0EEF908B101F0A4FA6D1E04
:105290006DB2002DECDC4FF0FF3684F8456002F073
:1052A0001BF902F0FFF894F9445004F1100709E0EB
:1052B000206948B1384601F0D5F908B101F08BFA00
:1052C0006D1E6DB2002DF3DC84F84460BDE8F04142
:1052D00002F002B92DE9FF4F83B099468B460400D6
:1052E0004FF0000605D140F2D92268A16CA004F06D
:1052F00057FABBF1000F07D1206C28B140F2DA2237
:1053000062A167A004F04CFAB9F1020F08D1E06B7A
:10531000012805D040F2DB225CA161A004F040FA34
:1053200001F068FA38B9059828B140F2DE2257A199
:105330005BA004F035FA4FF0000A4FF08057DFF819
:10534000708102F0AFF8A06BE16B884206D3B9F12F
:10535000020F03D0059800B316B325E04A4659461C
:105360002046FFF710FFA16C21B149462046FFF708
:105370003FFF05E0616A19B104F1240001F072F900
:1053800028B1C8F80070BFF34F8FBFF36F8F02F0E2
:10539000A3F8012007B0BDE8F08F02F09DF821E0EE
:1053A000684601F0CEF9012602F096F800F09BFD68
:1053B00002F078F894F94400401C01D184F844A02C
:1053C00094F94500401C01D184F845A002F084F80E
:1053D00005A9684601F0C6F930B12046FFF73EFF47
:1053E00000F0F3FC0020D5E702F05CF8A06BE16B65
:1053F000884201D1012500E0002502F06DF895B149
:1054000004F11000059901F0D4F82046FFF726FFBB
:1054100000F0DBFC002894D1C8F80070BFF34F8F78
:10542000BFF36F8F8DE72046FFF718FF00F0CDFC2C
:1054300087E710B5024600210120FFF77BFE041E1E
:1054400007D00021416001600B460A46C160FFF7AA
:1054500041FF204610BD10B5040005D140F24122A5
:105460000AA10FA004F09CF901F0C1F9616888421B
:1054700020D1E068401EE06005D100231A4619469D
:105480002046FFF727FF012010BD00002E2E5C46AE
:1054900072656552544F535C71756575652E630076
:1054A0004572726F723A25732C25640D0A00000054
:1054B00004ED00E00020E7E730B4026C0B46002A60
:1054C0000BD0C1681144C1604468A14201D3016896
:1054D000C16030BC184604F060BA30BC70472DE99A
:1054E000FF4F83B09B468A4604004FF0000607D169
:1054F00040F2DC42AFF26C01AFF25C0004F050F914
:10550000BAF1000F09D1206C38B140F2DD42AFF2A0
:105510008401AFF2740004F043F901F06BF948B96B
:10552000059838B14FF49C62AFF2A001AFF2900041
:1055300004F036F94FF000094FF08057DFF8188675
:1055400001F0B0FFA56B35B351462046E668FFF782
:10555000B3FFBBF1000F11D0E660606A50B104F1F7
:10556000240001F07FF828B1C8F80070BFF34F8F16
:10557000BFF36F8F01F0B0FF01200BE76D1EA56335
:10558000206810B901F02FFA606020690028F1D07E
:1055900004F11000E5E7059808B11EB106E001F03E
:1055A0009BFF27E0684601F0CCF8012601F094FF4C
:1055B00000F099FC01F076FF94F94400401C01D101
:1055C00084F8449094F94500401C01D184F845903A
:1055D00001F082FF05A9684601F0C4F800282046C2
:1055E0000AD0FFF73BFE00F0F0FB204600F0A6FAE1
:1055F0000028A5D00020CDE600F0A0FAD8B12068A0
:1056000030B901F04FFF606801F0FFF801F064FF6E
:1056100004F12400059900F0CCFF2046FFF71EFEA0
:1056200000F0D3FB00288BD1C8F80070BFF34F8F78
:10563000BFF36F8F84E72046FFF710FE00F0C5FB35
:105640007EE770B50D46040007D14FF41E72AFF22D
:10565000C411AFF2B41004F0A3F801F0C8F8616807
:10566000884204D1E068401CE060012070BD002346
:105670002A4619462046FFF732FF0028F6D0E16897
:10568000491CE16070BD70B50C46050007D140F2C1
:10569000BD22AFF20821AFF2F81004F081F8AC425D
:1056A00007D940F2BE22AFF21C21AFF20C2004F069
:1056B00077F8022200212846FFF73CFD002800D0A1
:1056C000846370BD2DE9F04798461546894604006D
:1056D00007D140F29F32AFF24C21AFF23C2004F0F0
:1056E0005FF8B9F1000F09D1206C38B14FF468723E
:1056F000AFF26821AFF2582004F052F8B8F1020F6F
:105700000AD1E06B012807D040F2A132AFF2842128
:10571000AFF2742004F044F801F003FF5020EFF3DF
:10572000118780F31188BFF34F8FBFF36F8FA06B8A
:10573000E16B884207D3B8F1020F04D0002087F351
:105740001188BDE8F08794F94560424649462046F5
:10575000FFF719FD701C04D0761C84F84560012009
:10576000EDE7A06C012620B141462046FFF740FD41
:1057700006E0606A0028F2D004F1240000F072FF15
:105780000028ECD0002DEAD02E60E8E72DE9F041AA
:105790000D46040007D140F23C42AFF21031AFF2A7
:1057A000003003F0FDFF206C38B14FF48862AFF297
:1057B0002431AFF2143003F0F3FF206848B9606879
:1057C00038B140F24542AFF23C31AFF22C3003F039
:1057D000E7FF01F0A6FE5020EFF3118680F3118859
:1057E000BFF34F8FBFF36F8FA16BE06B88421FD960
:1057F00094F94500491CA163411C04D0401C84F865
:105800004500012015E0A06C012720B100212046B1
:10581000FFF7EEFC06E0606A0028F2D004F12400F5
:1058200000F020FF0028ECD0002DEAD02F60E8E740
:10583000002086F31188A0E42DE9F04790468946C0
:10584000040007D14FF4B462AFF2C031AFF2B03010
:1058500003F0A6FFB9F1000F09D1206C38B140F276
:10586000A152AFF2D831AFF2C83003F099FF01F086
:1058700058FE5020EFF3118780F31188BFF34F8F4C
:10588000BFF36F8FA66BF6B194F94450494620469A
:10589000FFF712FE761EA663681C04D06D1C84F808
:1058A0004450012010E020690028FAD004F11000D3
:1058B00000F0D8FE0028F4D0B8F1000FF1D001219B
:1058C000C8F80010EDE7002087F3118839E72DE9CB
:1058D000F0410E46040007D140F2FC52AFF25441B1
:1058E000AFF2444003F05CFF4EB9206C48B140F287
:1058F000FD52AFF26841AFF2584003F051FF206C07
:1059000038B940F2FE52AFF27C41AFF26C4003F086
:1059100047FF01F006FE5020EFF3118580F3118858
:10592000BFF34F8FBFF36F8FA06B30B1314620466E
:10593000E768FFF7C1FD0120E76085F311881CE4EB
:1059400010B5040007D140F22F62AFF2C041AFF2B0
:10595000B04003F025FF01F0A5FDA46B01F0BCFDF4
:10596000204691E510B5040007D140F24162AFF244
:10597000E441AFF2D44003F013FF01F093FDD4E90A
:105980000E10441A01F0A8FD20467DE510B5040074
:1059900007D140F25162AFF20C51AFF2FC4003F07C
:1059A000FFFEA06B70E56D4A002102EBC1035B684E
:1059B000834206D1002042F8310002EBC101486069
:1059C0007047491C0829F0D3704710B5040007D16F
:1059D00040F25D62AFF24C51AFF23C5003F0E0FE9A
:1059E0002046FFF7E0FF2046BDE8104001F075BEFD
:1059F000C06C7047C164704790F85000704710B594
:105A0000040007D140F29372AFF28051AFF27050B0
:105A100003F0C6FEA06B08B1002035E5012033E598
:105A200010B5040007D140F2BA72AFF2A051AFF244
:105A3000905003F0B5FEA06BE16B884201D10120CC
:105A400022E5002020E510B5444B002253F83240F7
:105A50001CB1521C082AF9D316E543F8321003EBA7
:105A6000C201486010E510B500243C4A214602EB13
:105A7000C1035B68834202D152F8314002E0491C05
:105A80000829F4D32046FFE470B515460E460446B7
:105A900001F008FD94F944100020491C01D184F85C
:105AA000440094F94510491C01D184F8450001F0E7
:105AB00013FDA06B28B92A46314604F1240000F0FA
:105AC000B6FD2046BDE87040FFF7C8BB00220421A8
:105AD000FFF730BB70B50D46044601F0E3FCA06C47
